{"abi":[{"type":"constructor","inputs":[],"stateMutability":"nonpayable"},{"type":"function","name":"approve","inputs":[{"name":"to","type":"address","internalType":"address"},{"name":"tokenId","type":"uint256","internalType":"uint256"}],"outputs":[],"stateMutability":"nonpayable"},{"type":"function","name":"balanceOf","inputs":[{"name":"owner","type":"address","internalType":"address"}],"outputs":[{"name":"","type":"uint256","internalType":"uint256"}],"stateMutability":"view"},{"type":"function","name":"createMarketSale","inputs":[{"name":"tokenId","type":"uint256","internalType":"uint256"}],"outputs":[],"stateMutability":"payable"},{"type":"function","name":"createToken","inputs":[{"name":"tokenURI","type":"string","internalType":"string"},{"name":"price","type":"uint256","internalType":"uint256"}],"outputs":[{"name":"","type":"uint256","internalType":"uint256"}],"stateMutability":"payable"},{"type":"function","name":"fetchItemsListed","inputs":[],"outputs":[{"name":"","type":"tuple[]","internalType":"struct NFTMarketplace.MarketItem[]","components":[{"name":"tokenId","type":"uint256","internalType":"uint256"},{"name":"seller","type":"address","internalType":"address payable"},{"name":"owner","type":"address","internalType":"address payable"},{"name":"price","type":"uint256","internalType":"uint256"},{"name":"sold","type":"bool","internalType":"bool"}]}],"stateMutability":"view"},{"type":"function","name":"fetchMarketItems","inputs":[],"outputs":[{"name":"","type":"tuple[]","internalType":"struct NFTMarketplace.MarketItem[]","components":[{"name":"tokenId","type":"uint256","internalType":"uint256"},{"name":"seller","type":"address","internalType":"address payable"},{"name":"owner","type":"address","internalType":"address payable"},{"name":"price","type":"uint256","internalType":"uint256"},{"name":"sold","type":"bool","internalType":"bool"}]}],"stateMutability":"view"},{"type":"function","name":"fetchMyNFTs","inputs":[],"outputs":[{"name":"","type":"tuple[]","internalType":"struct NFTMarketplace.MarketItem[]","components":[{"name":"tokenId","type":"uint256","internalType":"uint256"},{"name":"seller","type":"address","internalType":"address payable"},{"name":"owner","type":"address","internalType":"address payable"},{"name":"price","type":"uint256","internalType":"uint256"},{"name":"sold","type":"bool","internalType":"bool"}]}],"stateMutability":"view"},{"type":"function","name":"getApproved","inputs":[{"name":"tokenId","type":"uint256","internalType":"uint256"}],"outputs":[{"name":"","type":"address","internalType":"address"}],"stateMutability":"view"},{"type":"function","name":"getListingPrice","inputs":[],"outputs":[{"name":"","type":"uint256","internalType":"uint256"}],"stateMutability":"view"},{"type":"function","name":"getMarketItem","inputs":[{"name":"tokenId","type":"uint256","internalType":"uint256"}],"outputs":[{"name":"","type":"tuple","internalType":"struct NFTMarketplace.MarketItem","components":[{"name":"tokenId","type":"uint256","internalType":"uint256"},{"name":"seller","type":"address","internalType":"address payable"},{"name":"owner","type":"address","internalType":"address payable"},{"name":"price","type":"uint256","internalType":"uint256"},{"name":"sold","type":"bool","internalType":"bool"}]}],"stateMutability":"view"},{"type":"function","name":"isApprovedForAll","inputs":[{"name":"owner","type":"address","internalType":"address"},{"name":"operator","type":"address","internalType":"address"}],"outputs":[{"name":"","type":"bool","internalType":"bool"}],"stateMutability":"view"},{"type":"function","name":"name","inputs":[],"outputs":[{"name":"","type":"string","internalType":"string"}],"stateMutability":"view"},{"type":"function","name":"ownerOf","inputs":[{"name":"tokenId","type":"uint256","internalType":"uint256"}],"outputs":[{"name":"","type":"address","internalType":"address"}],"stateMutability":"view"},{"type":"function","name":"resellToken","inputs":[{"name":"tokenId","type":"uint256","internalType":"uint256"},{"name":"price","type":"uint256","internalType":"uint256"}],"outputs":[],"stateMutability":"payable"},{"type":"function","name":"safeTransferFrom","inputs":[{"name":"from","type":"address","internalType":"address"},{"name":"to","type":"address","internalType":"address"},{"name":"tokenId","type":"uint256","internalType":"uint256"}],"outputs":[],"stateMutability":"nonpayable"},{"type":"function","name":"safeTransferFrom","inputs":[{"name":"from","type":"address","internalType":"address"},{"name":"to","type":"address","internalType":"address"},{"name":"tokenId","type":"uint256","internalType":"uint256"},{"name":"data","type":"bytes","internalType":"bytes"}],"outputs":[],"stateMutability":"nonpayable"},{"type":"function","name":"setApprovalForAll","inputs":[{"name":"operator","type":"address","internalType":"address"},{"name":"approved","type":"bool","internalType":"bool"}],"outputs":[],"stateMutability":"nonpayable"},{"type":"function","name":"supportsInterface","inputs":[{"name":"interfaceId","type":"bytes4","internalType":"bytes4"}],"outputs":[{"name":"","type":"bool","internalType":"bool"}],"stateMutability":"view"},{"type":"function","name":"symbol","inputs":[],"outputs":[{"name":"","type":"string","internalType":"string"}],"stateMutability":"view"},{"type":"function","name":"tokenURI","inputs":[{"name":"tokenId","type":"uint256","internalType":"uint256"}],"outputs":[{"name":"","type":"string","internalType":"string"}],"stateMutability":"view"},{"type":"function","name":"transferFrom","inputs":[{"name":"from","type":"address","internalType":"address"},{"name":"to","type":"address","internalType":"address"},{"name":"tokenId","type":"uint256","internalType":"uint256"}],"outputs":[],"stateMutability":"nonpayable"},{"type":"function","name":"updateListingPrice","inputs":[{"name":"_listingPrice","type":"uint256","internalType":"uint256"}],"outputs":[],"stateMutability":"payable"},{"type":"event","name":"Approval","inputs":[{"name":"owner","type":"address","indexed":true,"internalType":"address"},{"name":"approved","type":"address","indexed":true,"internalType":"address"},{"name":"tokenId","type":"uint256","indexed":true,"internalType":"uint256"}],"anonymous":false},{"type":"event","name":"ApprovalForAll","inputs":[{"name":"owner","type":"address","indexed":true,"internalType":"address"},{"name":"operator","type":"address","indexed":true,"internalType":"address"},{"name":"approved","type":"bool","indexed":false,"internalType":"bool"}],"anonymous":false},{"type":"event","name":"BatchMetadataUpdate","inputs":[{"name":"_fromTokenId","type":"uint256","indexed":false,"internalType":"uint256"},{"name":"_toTokenId","type":"uint256","indexed":false,"internalType":"uint256"}],"anonymous":false},{"type":"event","name":"MarketItemCreated","inputs":[{"name":"tokenId","type":"uint256","indexed":true,"internalType":"uint256"},{"name":"seller","type":"address","indexed":false,"internalType":"address"},{"name":"owner","type":"address","indexed":false,"internalType":"address"},{"name":"price","type":"uint256","indexed":false,"internalType":"uint256"},{"name":"sold","type":"bool","indexed":false,"internalType":"bool"}],"anonymous":false},{"type":"event","name":"MetadataUpdate","inputs":[{"name":"_tokenId","type":"uint256","indexed":false,"internalType":"uint256"}],"anonymous":false},{"type":"event","name":"Transfer","inputs":[{"name":"from","type":"address","indexed":true,"internalType":"address"},{"name":"to","type":"address","indexed":true,"internalType":"address"},{"name":"tokenId","type":"uint256","indexed":true,"internalType":"uint256"}],"anonymous":false},{"type":"error","name":"ERC721IncorrectOwner","inputs":[{"name":"sender","type":"address","internalType":"address"},{"name":"tokenId","type":"uint256","internalType":"uint256"},{"name":"owner","type":"address","internalType":"address"}]},{"type":"error","name":"ERC721InsufficientApproval","inputs":[{"name":"operator","type":"address","internalType":"address"},{"name":"tokenId","type":"uint256","internalType":"uint256"}]},{"type":"error","name":"ERC721InvalidApprover","inputs":[{"name":"approver","type":"address","internalType":"address"}]},{"type":"error","name":"ERC721InvalidOperator","inputs":[{"name":"operator","type":"address","internalType":"address"}]},{"type":"error","name":"ERC721InvalidOwner","inputs":[{"name":"owner","type":"address","internalType":"address"}]},{"type":"error","name":"ERC721InvalidReceiver","inputs":[{"name":"receiver","type":"address","internalType":"address"}]},{"type":"error","name":"ERC721InvalidSender","inputs":[{"name":"sender","type":"address","internalType":"address"}]},{"type":"error","name":"ERC721NonexistentToken","inputs":[{"name":"tokenId","type":"uint256","internalType":"uint256"}]}],"bytecode":{"object":"0x60806040526658d15e1762800060095534801561001b57600080fd5b506040518060400160405280600f81526020016e2230b4b53ab83630b1b29024b7319760891b815250604051806040016040528060038152602001620444a560ec1b815250816000908161006f9190610135565b50600161007c8282610135565b5050600a80546001600160a01b03191633179055506101f3565b634e487b7160e01b600052604160045260246000fd5b600181811c908216806100c057607f821691505b6020821081036100e057634e487b7160e01b600052602260045260246000fd5b50919050565b601f82111561013057806000526020600020601f840160051c8101602085101561010d5750805b601f840160051c820191505b8181101561012d5760008155600101610119565b50505b505050565b81516001600160401b0381111561014e5761014e610096565b6101628161015c84546100ac565b846100e6565b6020601f821160018114610196576000831561017e5750848201515b600019600385901b1c1916600184901b17845561012d565b600084815260208120601f198516915b828110156101c657878501518255602094850194600190920191016101a6565b50848210156101e45786840151600019600387901b60f8161c191681555b50505050600190811b01905550565b612076806102026000396000f3fe6080604052600436106101355760003560e01c806370a08231116100ab578063b88d4fde1161006f578063b88d4fde14610331578063be9af53614610351578063c7be7a4914610364578063c87b56dd14610391578063e219fc75146103b1578063e985e9c5146103c457600080fd5b806370a08231146102b657806372b3b620146102d657806395d89b41146102e9578063a22cb465146102fe578063ae677aa31461031e57600080fd5b806312e85585116100fd57806312e855851461020d578063202e37401461022c57806323b872dd1461024157806342842e0e1461026157806345f8fa80146102815780636352211e1461029657600080fd5b806301ffc9a71461013a57806306fdde031461016f578063081812fc14610191578063095ea7b3146101c95780630f08efe0146101eb575b600080fd5b34801561014657600080fd5b5061015a610155366004611a5c565b6103e4565b60405190151581526020015b60405180910390f35b34801561017b57600080fd5b5061018461040f565b6040516101669190611ac9565b34801561019d57600080fd5b506101b16101ac366004611adc565b6104a1565b6040516001600160a01b039091168152602001610166565b3480156101d557600080fd5b506101e96101e4366004611b11565b6104ca565b005b3480156101f757600080fd5b506102006104d9565b6040516101669190611b7b565b34801561021957600080fd5b506009545b604051908152602001610166565b34801561023857600080fd5b50610200610646565b34801561024d57600080fd5b506101e961025c366004611bc9565b6107e6565b34801561026d57600080fd5b506101e961027c366004611bc9565b610876565b34801561028d57600080fd5b50610200610896565b3480156102a257600080fd5b506101b16102b1366004611adc565b610a36565b3480156102c257600080fd5b5061021e6102d1366004611c06565b610a41565b61021e6102e4366004611cb1565b610a89565b3480156102f557600080fd5b50610184610acb565b34801561030a57600080fd5b506101e9610319366004611d0a565b610ada565b6101e961032c366004611adc565b610ae5565b34801561033d57600080fd5b506101e961034c366004611d46565b610b5d565b6101e961035f366004611adc565b610b74565b34801561037057600080fd5b5061038461037f366004611adc565b610cd9565b6040516101669190611dc2565b34801561039d57600080fd5b506101846103ac366004611adc565b610d43565b6101e96103bf366004611dd0565b610e54565b3480156103d057600080fd5b5061015a6103df366004611df2565b610f88565b60006001600160e01b03198216632483248360e11b1480610409575061040982610fb6565b92915050565b60606000805461041e90611e25565b80601f016020809104026020016040519081016040528092919081815260200182805461044a90611e25565b80156104975780601f1061046c57610100808354040283529160200191610497565b820191906000526020600020905b81548152906001019060200180831161047a57829003601f168201915b5050505050905090565b60006104ac82611006565b506000828152600460205260409020546001600160a01b0316610409565b6104d582823361103f565b5050565b606060006104e660075490565b905060006104f360085490565b6007546105009190611e75565b90506000808267ffffffffffffffff81111561051e5761051e611c21565b60405190808252806020026020018201604052801561055757816020015b610544611a15565b81526020019060019003908161053c5790505b50905060005b8481101561063d5730600b6000610575846001611e88565b81526020810191909152604001600020600201546001600160a01b0316036106355760006105a4826001611e88565b6000818152600b6020908152604091829020825160a0810184528154815260018201546001600160a01b039081169382019390935260028201549092169282019290925260038201546060820152600482015460ff16151560808201528551929350909185908790811061061a5761061a611e9b565b6020908102919091010152610630600186611e88565b945050505b60010161055d565b50949350505050565b6060600061065360075490565b905060008060005b838110156106ab5733600b6000610673846001611e88565b81526020810191909152604001600020600201546001600160a01b0316036106a3576106a0600184611e88565b92505b60010161065b565b5060008267ffffffffffffffff8111156106c7576106c7611c21565b60405190808252806020026020018201604052801561070057816020015b6106ed611a15565b8152602001906001900390816106e55790505b50905060005b8481101561063d5733600b600061071e846001611e88565b81526020810191909152604001600020600201546001600160a01b0316036107de57600061074d826001611e88565b6000818152600b6020908152604091829020825160a0810184528154815260018201546001600160a01b039081169382019390935260028201549092169282019290925260038201546060820152600482015460ff1615156080820152855192935090918590879081106107c3576107c3611e9b565b60209081029190910101526107d9600186611e88565b945050505b600101610706565b6001600160a01b03821661081557604051633250574960e11b8152600060048201526024015b60405180910390fd5b600061082283833361104c565b9050836001600160a01b0316816001600160a01b031614610870576040516364283d7b60e01b81526001600160a01b038086166004830152602482018490528216604482015260640161080c565b50505050565b61089183838360405180602001604052806000815250610b5d565b505050565b606060006108a360075490565b905060008060005b838110156108fb5733600b60006108c3846001611e88565b81526020810191909152604001600020600101546001600160a01b0316036108f3576108f0600184611e88565b92505b6001016108ab565b5060008267ffffffffffffffff81111561091757610917611c21565b60405190808252806020026020018201604052801561095057816020015b61093d611a15565b8152602001906001900390816109355790505b50905060005b8481101561063d5733600b600061096e846001611e88565b81526020810191909152604001600020600101546001600160a01b031603610a2e57600061099d826001611e88565b6000818152600b6020908152604091829020825160a0810184528154815260018201546001600160a01b039081169382019390935260028201549092169282019290925260038201546060820152600482015460ff161515608082015285519293509091859087908110610a1357610a13611e9b565b6020908102919091010152610a29600186611e88565b945050505b600101610956565b600061040982611006565b60006001600160a01b038216610a6d576040516322718ad960e21b81526000600482015260240161080c565b506001600160a01b031660009081526003602052604090205490565b6000610a99600780546001019055565b6000610aa460075490565b9050610ab03382611145565b610aba81856111aa565b610ac481846111fa565b9392505050565b60606001805461041e90611e25565b6104d533838361139a565b600a546001600160a01b03163314610b585760405162461bcd60e51b815260206004820152603060248201527f4f6e6c79206d61726b6574706c616365206f776e65722063616e20757064617460448201526f32903634b9ba34b73390383934b1b29760811b606482015260840161080c565b600955565b610b688484846107e6565b61087084848484611439565b6000818152600b6020526040902060038101546001909101546001600160a01b0316348214610c0d576040805162461bcd60e51b81526020600482015260248101919091527f506c65617365207375626d6974207468652061736b696e67207072696365206960448201527f6e206f7264657220746f20636f6d706c65746520746865207075726368617365606482015260840161080c565b6000838152600b602052604090206002810180546001600160a01b0319908116331790915560048201805460ff1916600190811790915590910180549091169055610c5c600880546001019055565b610c67303385611562565b600a546009546040516001600160a01b039092169181156108fc0291906000818181858888f19350505050158015610ca3573d6000803e3d6000fd5b506040516001600160a01b038216903480156108fc02916000818181858888f19350505050158015610870573d6000803e3d6000fd5b610ce1611a15565b506000908152600b6020908152604091829020825160a0810184528154815260018201546001600160a01b03908116938201939093526002820154909216928201929092526003820154606082015260049091015460ff161515608082015290565b6060610d4e82611006565b5060008281526006602052604081208054610d6890611e25565b80601f0160208091040260200160405190810160405280929190818152602001828054610d9490611e25565b8015610de15780601f10610db657610100808354040283529160200191610de1565b820191906000526020600020905b815481529060010190602001808311610dc457829003601f168201915b505050505090506000610dff60408051602081019091526000815290565b90508051600003610e11575092915050565b815115610e43578082604051602001610e2b929190611eb1565b60405160208183030381529060405292505050919050565b610e4c84611612565b949350505050565b6000828152600b60205260409020600201546001600160a01b03163314610ed05760405162461bcd60e51b815260206004820152602a60248201527f4f6e6c79206974656d206f776e65722063616e20706572666f726d20746869736044820152691037b832b930ba34b7b760b11b606482015260840161080c565b6009543414610f2d5760405162461bcd60e51b8152602060048201526024808201527f5072696365206d75737420626520657175616c20746f206c697374696e6720706044820152637269636560e01b606482015260840161080c565b6000828152600b6020526040902060048101805460ff19169055600381018290556001810180546001600160a01b031990811633179091556002909101805490911630179055610f7d6008611686565b6104d5333084611562565b6001600160a01b03918216600090815260056020908152604080832093909416825291909152205460ff1690565b60006001600160e01b031982166380ac58cd60e01b1480610fe757506001600160e01b03198216635b5e139f60e01b145b8061040957506301ffc9a760e01b6001600160e01b0319831614610409565b6000818152600260205260408120546001600160a01b03168061040957604051637e27328960e01b81526004810184905260240161080c565b61089183838360016116dd565b6000828152600260205260408120546001600160a01b0390811690831615611079576110798184866117e3565b6001600160a01b038116156110b7576110966000856000806116dd565b6001600160a01b038116600090815260036020526040902080546000190190555b6001600160a01b038516156110e6576001600160a01b0385166000908152600360205260409020805460010190555b60008481526002602052604080822080546001600160a01b0319166001600160a01b0389811691821790925591518793918516917fddf252ad1be2c89b69c2b068fc378daa952ba7f163c4a11628f55a4df523b3ef91a4949350505050565b6001600160a01b03821661116f57604051633250574960e11b81526000600482015260240161080c565b600061117d8383600061104c565b90506001600160a01b03811615610891576040516339e3563760e11b81526000600482015260240161080c565b60008281526006602052604090206111c28282611f27565b506040518281527ff8e1a15aba9398e019f0b49df1a4fde98ee17ae345cb5f6b5e2c27f5033e8ce79060200160405180910390a15050565b6000811161124a5760405162461bcd60e51b815260206004820152601c60248201527f5072696365206d757374206265206174206c6561737420312077656900000000604482015260640161080c565b60095434146112b55760405162461bcd60e51b815260206004820152603160248201527f546f20637265617465204e46542c206d7573742070617920617320657175616c60448201527020746f206c697374696e6720707269636560781b606482015260840161080c565b6040805160a08101825283815233602080830182815230848601818152606086018881526000608088018181528b8252600b909652979097209551865591516001860180546001600160a01b03199081166001600160a01b0393841617909155925160028701805490941691161790915593516003840155516004909201805460ff19169215159290921790915561134d9184611562565b604080513381523060208201529081018290526000606082015282907fb640004f1d14576d0c209e240cad0410e0d8c0c33a09375861fbadae2588a98d9060800160405180910390a25050565b6001600160a01b0382166113cc57604051630b61174360e31b81526001600160a01b038316600482015260240161080c565b6001600160a01b03838116600081815260056020908152604080832094871680845294825291829020805460ff191686151590811790915591519182527f17307eab39ab6107e8899845ad3d59bd9653f200f220920489ca2b5937696c31910160405180910390a3505050565b6001600160a01b0383163b1561087057604051630a85bd0160e11b81526001600160a01b0384169063150b7a029061147b903390889087908790600401611fe6565b6020604051808303816000875af19250505080156114b6575060408051601f3d908101601f191682019092526114b391810190612023565b60015b61151f573d8080156114e4576040519150601f19603f3d011682016040523d82523d6000602084013e6114e9565b606091505b50805160000361151757604051633250574960e11b81526001600160a01b038516600482015260240161080c565b805181602001fd5b6001600160e01b03198116630a85bd0160e11b1461155b57604051633250574960e11b81526001600160a01b038516600482015260240161080c565b5050505050565b6001600160a01b03821661158c57604051633250574960e11b81526000600482015260240161080c565b600061159a8383600061104c565b90506001600160a01b0381166115c657604051637e27328960e01b81526004810183905260240161080c565b836001600160a01b0316816001600160a01b031614610870576040516364283d7b60e01b81526001600160a01b038086166004830152602482018490528216604482015260640161080c565b606061161d82611006565b50600061163560408051602081019091526000815290565b905060008151116116555760405180602001604052806000815250610ac4565b8061165f84611847565b604051602001611670929190611eb1565b6040516020818303038152906040529392505050565b8054806116d55760405162461bcd60e51b815260206004820152601b60248201527f436f756e7465723a2064656372656d656e74206f766572666c6f770000000000604482015260640161080c565b600019019055565b80806116f157506001600160a01b03821615155b156117b357600061170184611006565b90506001600160a01b0383161580159061172d5750826001600160a01b0316816001600160a01b031614155b8015611740575061173e8184610f88565b155b156117695760405163a9fbf51f60e01b81526001600160a01b038416600482015260240161080c565b81156117b15783856001600160a01b0316826001600160a01b03167f8c5be1e5ebec7d5bd14f71427d1e84f3dd0314c0f7b2291e5b200ac8c7c3b92560405160405180910390a45b505b5050600090815260046020526040902080546001600160a01b0319166001600160a01b0392909216919091179055565b6117ee8383836118da565b610891576001600160a01b03831661181c57604051637e27328960e01b81526004810182905260240161080c565b60405163177e802f60e01b81526001600160a01b03831660048201526024810182905260440161080c565b606060006118548361193d565b600101905060008167ffffffffffffffff81111561187457611874611c21565b6040519080825280601f01601f19166020018201604052801561189e576020820181803683370190505b5090508181016020015b600019016f181899199a1a9b1b9c1cb0b131b232b360811b600a86061a8153600a85049450846118a857509392505050565b60006001600160a01b03831615801590610e4c5750826001600160a01b0316846001600160a01b0316148061191457506119148484610f88565b80610e4c5750506000908152600460205260409020546001600160a01b03908116911614919050565b60008072184f03e93ff9f4daa797ed6e38ed64bf6a1f0160401b831061197c5772184f03e93ff9f4daa797ed6e38ed64bf6a1f0160401b830492506040015b6d04ee2d6d415b85acef810000000083106119a8576d04ee2d6d415b85acef8100000000830492506020015b662386f26fc1000083106119c657662386f26fc10000830492506010015b6305f5e10083106119de576305f5e100830492506008015b61271083106119f257612710830492506004015b60648310611a04576064830492506002015b600a83106104095760010192915050565b6040805160a08101825260008082526020820181905291810182905260608101829052608081019190915290565b6001600160e01b031981168114611a5957600080fd5b50565b600060208284031215611a6e57600080fd5b8135610ac481611a43565b60005b83811015611a94578181015183820152602001611a7c565b50506000910152565b60008151808452611ab5816020860160208601611a79565b601f01601f19169290920160200192915050565b602081526000610ac46020830184611a9d565b600060208284031215611aee57600080fd5b5035919050565b80356001600160a01b0381168114611b0c57600080fd5b919050565b60008060408385031215611b2457600080fd5b611b2d83611af5565b946020939093013593505050565b805182526020808201516001600160a01b039081169184019190915260408083015190911690830152606080820151908301526080908101511515910152565b602080825282518282018190526000918401906040840190835b81811015611bbe57611ba8838551611b3b565b6020939093019260a09290920191600101611b95565b509095945050505050565b600080600060608486031215611bde57600080fd5b611be784611af5565b9250611bf560208501611af5565b929592945050506040919091013590565b600060208284031215611c1857600080fd5b610ac482611af5565b634e487b7160e01b600052604160045260246000fd5b60008067ffffffffffffffff841115611c5257611c52611c21565b50604051601f19601f85018116603f0116810181811067ffffffffffffffff82111715611c8157611c81611c21565b604052838152905080828401851015611c9957600080fd5b83836020830137600060208583010152509392505050565b60008060408385031215611cc457600080fd5b823567ffffffffffffffff811115611cdb57600080fd5b8301601f81018513611cec57600080fd5b611cfb85823560208401611c37565b95602094909401359450505050565b60008060408385031215611d1d57600080fd5b611d2683611af5565b915060208301358015158114611d3b57600080fd5b809150509250929050565b60008060008060808587031215611d5c57600080fd5b611d6585611af5565b9350611d7360208601611af5565b925060408501359150606085013567ffffffffffffffff811115611d9657600080fd5b8501601f81018713611da757600080fd5b611db687823560208401611c37565b91505092959194509250565b60a081016104098284611b3b565b60008060408385031215611de357600080fd5b50508035926020909101359150565b60008060408385031215611e0557600080fd5b611e0e83611af5565b9150611e1c60208401611af5565b90509250929050565b600181811c90821680611e3957607f821691505b602082108103611e5957634e487b7160e01b600052602260045260246000fd5b50919050565b634e487b7160e01b600052601160045260246000fd5b8181038181111561040957610409611e5f565b8082018082111561040957610409611e5f565b634e487b7160e01b600052603260045260246000fd5b60008351611ec3818460208801611a79565b835190830190611ed7818360208801611a79565b01949350505050565b601f82111561089157806000526020600020601f840160051c81016020851015611f075750805b601f840160051c820191505b8181101561155b5760008155600101611f13565b815167ffffffffffffffff811115611f4157611f41611c21565b611f5581611f4f8454611e25565b84611ee0565b6020601f821160018114611f895760008315611f715750848201515b600019600385901b1c1916600184901b17845561155b565b600084815260208120601f198516915b82811015611fb95787850151825560209485019460019092019101611f99565b5084821015611fd75786840151600019600387901b60f8161c191681555b50505050600190811b01905550565b6001600160a01b038581168252841660208201526040810183905260806060820181905260009061201990830184611a9d565b9695505050505050565b60006020828403121561203557600080fd5b8151610ac481611a4356fea264697066735822122014d172674270639667a457510c5ff6fc70624b410f920286f89f4158ed74cafd64736f6c634300081a0033","linkReferences":{}},"methodIdentifiers":{"approve(address,uint256)":"095ea7b3","balanceOf(address)":"70a08231","createMarketSale(uint256)":"be9af536","createToken(string,uint256)":"72b3b620","fetchItemsListed()":"45f8fa80","fetchMarketItems()":"0f08efe0","fetchMyNFTs()":"202e3740","getApproved(uint256)":"081812fc","getListingPrice()":"12e85585","getMarketItem(uint256)":"c7be7a49","isApprovedForAll(address,address)":"e985e9c5","name()":"06fdde03","ownerOf(uint256)":"6352211e","resellToken(uint256,uint256)":"e219fc75","safeTransferFrom(address,address,uint256)":"42842e0e","safeTransferFrom(address,address,uint256,bytes)":"b88d4fde","setApprovalForAll(address,bool)":"a22cb465","supportsInterface(bytes4)":"01ffc9a7","symbol()":"95d89b41","tokenURI(uint256)":"c87b56dd","transferFrom(address,address,uint256)":"23b872dd","updateListingPrice(uint256)":"ae677aa3"},"id":38}